{"contracts/Claims.sol":{"Claims":{"abi":[{"inputs":[{"internalType":"address","name":"issuer","type":"address"}],"stateMutability":"nonpayable","type":"constructor"},{"inputs":[{"internalType":"address","name":"owner","type":"address"}],"name":"OwnableInvalidOwner","type":"error"},{"inputs":[{"internalType":"address","name":"account","type":"address"}],"name":"OwnableUnauthorizedAccount","type":"error"},{"anonymous":false,"inputs":[{"indexed":true,"internalType":"address","name":"previousOwner","type":"address"},{"indexed":true,"internalType":"address","name":"newOwner","type":"address"}],"name":"OwnershipTransferred","type":"event"},{"inputs":[{"internalType":"uint256","name":"tokenId","type":"uint256"}],"name":"getClaim","outputs":[{"internalType":"string","name":"","type":"string"}],"stateMutability":"view","type":"function"},{"inputs":[],"name":"getIssuer","outputs":[{"internalType":"address","name":"","type":"address"}],"stateMutability":"view","type":"function"},{"inputs":[],"name":"getLastTokenId","outputs":[{"internalType":"uint256","name":"","type":"uint256"}],"stateMutability":"view","type":"function"},{"inputs":[],"name":"owner","outputs":[{"internalType":"address","name":"","type":"address"}],"stateMutability":"view","type":"function"},{"inputs":[],"name":"renounceOwnership","outputs":[],"stateMutability":"nonpayable","type":"function"},{"inputs":[{"internalType":"uint256","name":"tokenId","type":"uint256"},{"internalType":"string","name":"claimsHash","type":"string"}],"name":"setClaim","outputs":[],"stateMutability":"nonpayable","type":"function"},{"inputs":[{"internalType":"address","name":"newOwner","type":"address"}],"name":"transferOwnership","outputs":[],"stateMutability":"nonpayable","type":"function"}],"evm":{"bytecode":{"linkReferences":{},"object":"60806040523480156200001157600080fd5b506040516200120638038062001206833981810160405281019062000037919062000276565b33600073ffffffffffffffffffffffffffffffffffffffff168173ffffffffffffffffffffffffffffffffffffffff1603620000ad5760006040517f1e4fbdf7000000000000000000000000000000000000000000000000000000008152600401620000a49190620002b9565b60405180910390fd5b620000be816200014860201b60201c565b5080600260006101000a81548173ffffffffffffffffffffffffffffffffffffffff021916908373ffffffffffffffffffffffffffffffffffffffff16021790555080600360006101000a81548173ffffffffffffffffffffffffffffffffffffffff021916908373ffffffffffffffffffffffffffffffffffffffff16021790555050620002d6565b60008060009054906101000a900473ffffffffffffffffffffffffffffffffffffffff169050816000806101000a81548173ffffffffffffffffffffffffffffffffffffffff021916908373ffffffffffffffffffffffffffffffffffffffff1602179055508173ffffffffffffffffffffffffffffffffffffffff168173ffffffffffffffffffffffffffffffffffffffff167f8be0079c531659141344cd1fd0a4f28419497f9722a3daafe3b4186f6b6457e060405160405180910390a35050565b600080fd5b600073ffffffffffffffffffffffffffffffffffffffff82169050919050565b60006200023e8262000211565b9050919050565b620002508162000231565b81146200025c57600080fd5b50565b600081519050620002708162000245565b92915050565b6000602082840312156200028f576200028e6200020c565b5b60006200029f848285016200025f565b91505092915050565b620002b38162000231565b82525050565b6000602082019050620002d06000830184620002a8565b92915050565b610f2080620002e66000396000f3fe608060405234801561001057600080fd5b506004361061007d5760003560e01c8063715018a61161005b578063715018a6146100ec57806383c4c00d146100f65780638da5cb5b14610114578063f2fde38b146101325761007d565b80634bd9c12914610082578063525564211461009e5780635aef2447146100bc575b600080fd5b61009c6004803603810190610097919061080a565b61014e565b005b6100a66102b3565b6040516100b391906108ab565b60405180910390f35b6100d660048036038101906100d191906108c6565b6102dd565b6040516100e39190610983565b60405180910390f35b6100f46104b7565b005b6100fe6104cb565b60405161010b91906109b4565b60405180910390f35b61011c610563565b60405161012991906108ab565b60405180910390f35b61014c600480360381019061014791906109fb565b61058c565b005b610156610612565b82600260009054906101000a900473ffffffffffffffffffffffffffffffffffffffff1673ffffffffffffffffffffffffffffffffffffffff166383c4c00d6040518163ffffffff1660e01b8152600401602060405180830381865afa1580156101c4573d6000803e3d6000fd5b505050506040513d601f19601f820116820180604052508101906101e89190610a3d565b1015610229576040517f08c379a000000000000000000000000000000000000000000000000000000000815260040161022090610ab6565b60405180910390fd5b600060016000858152602001908152602001600020805461024990610b05565b90501461028b576040517f08c379a000000000000000000000000000000000000000000000000000000000815260040161028290610ba8565b60405180910390fd5b81816001600086815260200190815260200160002091826102ad929190610dae565b50505050565b6000600360009054906101000a900473ffffffffffffffffffffffffffffffffffffffff16905090565b606081600260009054906101000a900473ffffffffffffffffffffffffffffffffffffffff1673ffffffffffffffffffffffffffffffffffffffff166383c4c00d6040518163ffffffff1660e01b8152600401602060405180830381865afa15801561034d573d6000803e3d6000fd5b505050506040513d601f19601f820116820180604052508101906103719190610a3d565b10156103b2576040517f08c379a00000000000000000000000000000000000000000000000000000000081526004016103a990610ab6565b60405180910390fd5b60006001600084815260200190815260200160002080546103d290610b05565b905003610414576040517f08c379a000000000000000000000000000000000000000000000000000000000815260040161040b90610eca565b60405180910390fd5b60016000838152602001908152602001600020805461043290610b05565b80601f016020809104026020016040519081016040528092919081815260200182805461045e90610b05565b80156104ab5780601f10610480576101008083540402835291602001916104ab565b820191906000526020600020905b81548152906001019060200180831161048e57829003601f168201915b50505050509050919050565b6104bf610612565b6104c96000610699565b565b6000600260009054906101000a900473ffffffffffffffffffffffffffffffffffffffff1673ffffffffffffffffffffffffffffffffffffffff166383c4c00d6040518163ffffffff1660e01b8152600401602060405180830381865afa15801561053a573d6000803e3d6000fd5b505050506040513d601f19601f8201168201806040525081019061055e9190610a3d565b905090565b60008060009054906101000a900473ffffffffffffffffffffffffffffffffffffffff16905090565b610594610612565b600073ffffffffffffffffffffffffffffffffffffffff168173ffffffffffffffffffffffffffffffffffffffff16036106065760006040517f1e4fbdf70000000000000000000000000000000000000000000000000000000081526004016105fd91906108ab565b60405180910390fd5b61060f81610699565b50565b61061a61075d565b73ffffffffffffffffffffffffffffffffffffffff16610638610563565b73ffffffffffffffffffffffffffffffffffffffff16146106975761065b61075d565b6040517f118cdaa700000000000000000000000000000000000000000000000000000000815260040161068e91906108ab565b60405180910390fd5b565b60008060009054906101000a900473ffffffffffffffffffffffffffffffffffffffff169050816000806101000a81548173ffffffffffffffffffffffffffffffffffffffff021916908373ffffffffffffffffffffffffffffffffffffffff1602179055508173ffffffffffffffffffffffffffffffffffffffff168173ffffffffffffffffffffffffffffffffffffffff167f8be0079c531659141344cd1fd0a4f28419497f9722a3daafe3b4186f6b6457e060405160405180910390a35050565b600033905090565b600080fd5b600080fd5b6000819050919050565b6107828161076f565b811461078d57600080fd5b50565b60008135905061079f81610779565b92915050565b600080fd5b600080fd5b600080fd5b60008083601f8401126107ca576107c96107a5565b5b8235905067ffffffffffffffff8111156107e7576107e66107aa565b5b602083019150836001820283011115610803576108026107af565b5b9250929050565b60008060006040848603121561082357610822610765565b5b600061083186828701610790565b935050602084013567ffffffffffffffff8111156108525761085161076a565b5b61085e868287016107b4565b92509250509250925092565b600073ffffffffffffffffffffffffffffffffffffffff82169050919050565b60006108958261086a565b9050919050565b6108a58161088a565b82525050565b60006020820190506108c0600083018461089c565b92915050565b6000602082840312156108dc576108db610765565b5b60006108ea84828501610790565b91505092915050565b600081519050919050565b600082825260208201905092915050565b60005b8381101561092d578082015181840152602081019050610912565b60008484015250505050565b6000601f19601f8301169050919050565b6000610955826108f3565b61095f81856108fe565b935061096f81856020860161090f565b61097881610939565b840191505092915050565b6000602082019050818103600083015261099d818461094a565b905092915050565b6109ae8161076f565b82525050565b60006020820190506109c960008301846109a5565b92915050565b6109d88161088a565b81146109e357600080fd5b50565b6000813590506109f5816109cf565b92915050565b600060208284031215610a1157610a10610765565b5b6000610a1f848285016109e6565b91505092915050565b600081519050610a3781610779565b92915050565b600060208284031215610a5357610a52610765565b5b6000610a6184828501610a28565b91505092915050565b7f546f6b656e20646f6573206e6f74206578697374000000000000000000000000600082015250565b6000610aa06014836108fe565b9150610aab82610a6a565b602082019050919050565b60006020820190508181036000830152610acf81610a93565b9050919050565b7f4e487b7100000000000000000000000000000000000000000000000000000000600052602260045260246000fd5b60006002820490506001821680610b1d57607f821691505b602082108103610b3057610b2f610ad6565b5b50919050565b7f436c61696d7320616c7265616479206578697374206f6e207468697320746f6b60008201527f656e000000000000000000000000000000000000000000000000000000000000602082015250565b6000610b926022836108fe565b9150610b9d82610b36565b604082019050919050565b60006020820190508181036000830152610bc181610b85565b9050919050565b600082905092915050565b7f4e487b7100000000000000000000000000000000000000000000000000000000600052604160045260246000fd5b60008190508160005260206000209050919050565b60006020601f8301049050919050565b600082821b905092915050565b600060088302610c647fffffffffffffffffffffffffffffffffffffffffffffffffffffffffffffffff82610c27565b610c6e8683610c27565b95508019841693508086168417925050509392505050565b6000819050919050565b6000610cab610ca6610ca18461076f565b610c86565b61076f565b9050919050565b6000819050919050565b610cc583610c90565b610cd9610cd182610cb2565b848454610c34565b825550505050565b600090565b610cee610ce1565b610cf9818484610cbc565b505050565b5b81811015610d1d57610d12600082610ce6565b600181019050610cff565b5050565b601f821115610d6257610d3381610c02565b610d3c84610c17565b81016020851015610d4b578190505b610d5f610d5785610c17565b830182610cfe565b50505b505050565b600082821c905092915050565b6000610d8560001984600802610d67565b1980831691505092915050565b6000610d9e8383610d74565b9150826002028217905092915050565b610db88383610bc8565b67ffffffffffffffff811115610dd157610dd0610bd3565b5b610ddb8254610b05565b610de6828285610d21565b6000601f831160018114610e155760008415610e03578287013590505b610e0d8582610d92565b865550610e75565b601f198416610e2386610c02565b60005b82811015610e4b57848901358255600182019150602085019450602081019050610e26565b86831015610e685784890135610e64601f891682610d74565b8355505b6001600288020188555050505b50505050505050565b7f436c61696d73206e6f7420736574207965740000000000000000000000000000600082015250565b6000610eb46012836108fe565b9150610ebf82610e7e565b602082019050919050565b60006020820190508181036000830152610ee381610ea7565b905091905056fea2646970667358221220d0d94cd17dd1aaef187341b01f6b4ffe5649e7c85f46023263e0f079dcf5ce0064736f6c63430008140033","opcodes":"PUSH1 0x80 PUSH1 0x40 MSTORE CALLVALUE DUP1 ISZERO PUSH3 0x11 JUMPI PUSH1 0x0 DUP1 REVERT JUMPDEST POP PUSH1 0x40 MLOAD PUSH3 0x1206 CODESIZE SUB DUP1 PUSH3 0x1206 DUP4 CODECOPY DUP2 DUP2 ADD PUSH1 0x40 MSTORE DUP2 ADD SWAP1 PUSH3 0x37 SWAP2 SWAP1 PUSH3 0x276 JUMP JUMPDEST CALLER PUSH1 0x0 PUSH20 0xFFFFFFFFFFFFFFFFFFFFFFFFFFFFFFFFFFFFFFFF AND DUP2 PUSH20 0xFFFFFFFFFFFFFFFFFFFFFFFFFFFFFFFFFFFFFFFF AND SUB PUSH3 0xAD JUMPI PUSH1 0x0 PUSH1 0x40 MLOAD PUSH32 0x1E4FBDF700000000000000000000000000000000000000000000000000000000 DUP2 MSTORE PUSH1 0x4 ADD PUSH3 0xA4 SWAP2 SWAP1 PUSH3 0x2B9 JUMP JUMPDEST PUSH1 0x40 MLOAD DUP1 SWAP2 SUB SWAP1 REVERT JUMPDEST PUSH3 0xBE DUP2 PUSH3 0x148 PUSH1 0x20 SHL PUSH1 0x20 SHR JUMP JUMPDEST POP DUP1 PUSH1 0x2 PUSH1 0x0 PUSH2 0x100 EXP DUP2 SLOAD DUP2 PUSH20 0xFFFFFFFFFFFFFFFFFFFFFFFFFFFFFFFFFFFFFFFF MUL NOT AND SWAP1 DUP4 PUSH20 0xFFFFFFFFFFFFFFFFFFFFFFFFFFFFFFFFFFFFFFFF AND MUL OR SWAP1 SSTORE POP DUP1 PUSH1 0x3 PUSH1 0x0 PUSH2 0x100 EXP DUP2 SLOAD DUP2 PUSH20 0xFFFFFFFFFFFFFFFFFFFFFFFFFFFFFFFFFFFFFFFF MUL NOT AND SWAP1 DUP4 PUSH20 0xFFFFFFFFFFFFFFFFFFFFFFFFFFFFFFFFFFFFFFFF AND MUL OR SWAP1 SSTORE POP POP PUSH3 0x2D6 JUMP JUMPDEST PUSH1 0x0 DUP1 PUSH1 0x0 SWAP1 SLOAD SWAP1 PUSH2 0x100 EXP SWAP1 DIV PUSH20 0xFFFFFFFFFFFFFFFFFFFFFFFFFFFFFFFFFFFFFFFF AND SWAP1 POP DUP2 PUSH1 0x0 DUP1 PUSH2 0x100 EXP DUP2 SLOAD DUP2 PUSH20 0xFFFFFFFFFFFFFFFFFFFFFFFFFFFFFFFFFFFFFFFF MUL NOT AND SWAP1 DUP4 PUSH20 0xFFFFFFFFFFFFFFFFFFFFFFFFFFFFFFFFFFFFFFFF AND MUL OR SWAP1 SSTORE POP DUP2 PUSH20 0xFFFFFFFFFFFFFFFFFFFFFFFFFFFFFFFFFFFFFFFF AND DUP2 PUSH20 0xFFFFFFFFFFFFFFFFFFFFFFFFFFFFFFFFFFFFFFFF AND PUSH32 0x8BE0079C531659141344CD1FD0A4F28419497F9722A3DAAFE3B4186F6B6457E0 PUSH1 0x40 MLOAD PUSH1 0x40 MLOAD DUP1 SWAP2 SUB SWAP1 LOG3 POP POP JUMP JUMPDEST PUSH1 0x0 DUP1 REVERT JUMPDEST PUSH1 0x0 PUSH20 0xFFFFFFFFFFFFFFFFFFFFFFFFFFFFFFFFFFFFFFFF DUP3 AND SWAP1 POP SWAP2 SWAP1 POP JUMP JUMPDEST PUSH1 0x0 PUSH3 0x23E DUP3 PUSH3 0x211 JUMP JUMPDEST SWAP1 POP SWAP2 SWAP1 POP JUMP JUMPDEST PUSH3 0x250 DUP2 PUSH3 0x231 JUMP JUMPDEST DUP2 EQ PUSH3 0x25C JUMPI PUSH1 0x0 DUP1 REVERT JUMPDEST POP JUMP JUMPDEST PUSH1 0x0 DUP2 MLOAD SWAP1 POP PUSH3 0x270 DUP2 PUSH3 0x245 JUMP JUMPDEST SWAP3 SWAP2 POP POP JUMP JUMPDEST PUSH1 0x0 PUSH1 0x20 DUP3 DUP5 SUB SLT ISZERO PUSH3 0x28F JUMPI PUSH3 0x28E PUSH3 0x20C JUMP JUMPDEST JUMPDEST PUSH1 0x0 PUSH3 0x29F DUP5 DUP3 DUP6 ADD PUSH3 0x25F JUMP JUMPDEST SWAP2 POP POP SWAP3 SWAP2 POP POP JUMP JUMPDEST PUSH3 0x2B3 DUP2 PUSH3 0x231 JUMP JUMPDEST DUP3 MSTORE POP POP JUMP JUMPDEST PUSH1 0x0 PUSH1 0x20 DUP3 ADD SWAP1 POP PUSH3 0x2D0 PUSH1 0x0 DUP4 ADD DUP5 PUSH3 0x2A8 JUMP JUMPDEST SWAP3 SWAP2 POP POP JUMP JUMPDEST PUSH2 0xF20 DUP1 PUSH3 0x2E6 PUSH1 0x0 CODECOPY PUSH1 0x0 RETURN INVALID PUSH1 0x80 PUSH1 0x40 MSTORE CALLVALUE DUP1 ISZERO PUSH2 0x10 JUMPI PUSH1 0x0 DUP1 REVERT JUMPDEST POP PUSH1 0x4 CALLDATASIZE LT PUSH2 0x7D JUMPI PUSH1 0x0 CALLDATALOAD PUSH1 0xE0 SHR DUP1 PUSH4 0x715018A6 GT PUSH2 0x5B JUMPI DUP1 PUSH4 0x715018A6 EQ PUSH2 0xEC JUMPI DUP1 PUSH4 0x83C4C00D EQ PUSH2 0xF6 JUMPI DUP1 PUSH4 0x8DA5CB5B EQ PUSH2 0x114 JUMPI DUP1 PUSH4 0xF2FDE38B EQ PUSH2 0x132 JUMPI PUSH2 0x7D JUMP JUMPDEST DUP1 PUSH4 0x4BD9C129 EQ PUSH2 0x82 JUMPI DUP1 PUSH4 0x52556421 EQ PUSH2 0x9E JUMPI DUP1 PUSH4 0x5AEF2447 EQ PUSH2 0xBC JUMPI JUMPDEST PUSH1 0x0 DUP1 REVERT JUMPDEST PUSH2 0x9C PUSH1 0x4 DUP1 CALLDATASIZE SUB DUP2 ADD SWAP1 PUSH2 0x97 SWAP2 SWAP1 PUSH2 0x80A JUMP JUMPDEST PUSH2 0x14E JUMP JUMPDEST STOP JUMPDEST PUSH2 0xA6 PUSH2 0x2B3 JUMP JUMPDEST PUSH1 0x40 MLOAD PUSH2 0xB3 SWAP2 SWAP1 PUSH2 0x8AB JUMP JUMPDEST PUSH1 0x40 MLOAD DUP1 SWAP2 SUB SWAP1 RETURN JUMPDEST PUSH2 0xD6 PUSH1 0x4 DUP1 CALLDATASIZE SUB DUP2 ADD SWAP1 PUSH2 0xD1 SWAP2 SWAP1 PUSH2 0x8C6 JUMP JUMPDEST PUSH2 0x2DD JUMP JUMPDEST PUSH1 0x40 MLOAD PUSH2 0xE3 SWAP2 SWAP1 PUSH2 0x983 JUMP JUMPDEST PUSH1 0x40 MLOAD DUP1 SWAP2 SUB SWAP1 RETURN JUMPDEST PUSH2 0xF4 PUSH2 0x4B7 JUMP JUMPDEST STOP JUMPDEST PUSH2 0xFE PUSH2 0x4CB JUMP JUMPDEST PUSH1 0x40 MLOAD PUSH2 0x10B SWAP2 SWAP1 PUSH2 0x9B4 JUMP JUMPDEST PUSH1 0x40 MLOAD DUP1 SWAP2 SUB SWAP1 RETURN JUMPDEST PUSH2 0x11C PUSH2 0x563 JUMP JUMPDEST PUSH1 0x40 MLOAD PUSH2 0x129 SWAP2 SWAP1 PUSH2 0x8AB JUMP JUMPDEST PUSH1 0x40 MLOAD DUP1 SWAP2 SUB SWAP1 RETURN JUMPDEST PUSH2 0x14C PUSH1 0x4 DUP1 CALLDATASIZE SUB DUP2 ADD SWAP1 PUSH2 0x147 SWAP2 SWAP1 PUSH2 0x9FB JUMP JUMPDEST PUSH2 0x58C JUMP JUMPDEST STOP JUMPDEST PUSH2 0x156 PUSH2 0x612 JUMP JUMPDEST DUP3 PUSH1 0x2 PUSH1 0x0 SWAP1 SLOAD SWAP1 PUSH2 0x100 EXP SWAP1 DIV PUSH20 0xFFFFFFFFFFFFFFFFFFFFFFFFFFFFFFFFFFFFFFFF AND PUSH20 0xFFFFFFFFFFFFFFFFFFFFFFFFFFFFFFFFFFFFFFFF AND PUSH4 0x83C4C00D PUSH1 0x40 MLOAD DUP2 PUSH4 0xFFFFFFFF AND PUSH1 0xE0 SHL DUP2 MSTORE PUSH1 0x4 ADD PUSH1 0x20 PUSH1 0x40 MLOAD DUP1 DUP4 SUB DUP2 DUP7 GAS STATICCALL ISZERO DUP1 ISZERO PUSH2 0x1C4 JUMPI RETURNDATASIZE PUSH1 0x0 DUP1 RETURNDATACOPY RETURNDATASIZE PUSH1 0x0 REVERT JUMPDEST POP POP POP POP PUSH1 0x40 MLOAD RETURNDATASIZE PUSH1 0x1F NOT PUSH1 0x1F DUP3 ADD AND DUP3 ADD DUP1 PUSH1 0x40 MSTORE POP DUP2 ADD SWAP1 PUSH2 0x1E8 SWAP2 SWAP1 PUSH2 0xA3D JUMP JUMPDEST LT ISZERO PUSH2 0x229 JUMPI PUSH1 0x40 MLOAD PUSH32 0x8C379A000000000000000000000000000000000000000000000000000000000 DUP2 MSTORE PUSH1 0x4 ADD PUSH2 0x220 SWAP1 PUSH2 0xAB6 JUMP JUMPDEST PUSH1 0x40 MLOAD DUP1 SWAP2 SUB SWAP1 REVERT JUMPDEST PUSH1 0x0 PUSH1 0x1 PUSH1 0x0 DUP6 DUP2 MSTORE PUSH1 0x20 ADD SWAP1 DUP2 MSTORE PUSH1 0x20 ADD PUSH1 0x0 KECCAK256 DUP1 SLOAD PUSH2 0x249 SWAP1 PUSH2 0xB05 JUMP JUMPDEST SWAP1 POP EQ PUSH2 0x28B JUMPI PUSH1 0x40 MLOAD PUSH32 0x8C379A000000000000000000000000000000000000000000000000000000000 DUP2 MSTORE PUSH1 0x4 ADD PUSH2 0x282 SWAP1 PUSH2 0xBA8 JUMP JUMPDEST PUSH1 0x40 MLOAD DUP1 SWAP2 SUB SWAP1 REVERT JUMPDEST DUP2 DUP2 PUSH1 0x1 PUSH1 0x0 DUP7 DUP2 MSTORE PUSH1 0x20 ADD SWAP1 DUP2 MSTORE PUSH1 0x20 ADD PUSH1 0x0 KECCAK256 SWAP2 DUP3 PUSH2 0x2AD SWAP3 SWAP2 SWAP1 PUSH2 0xDAE JUMP JUMPDEST POP POP POP POP JUMP JUMPDEST PUSH1 0x0 PUSH1 0x3 PUSH1 0x0 SWAP1 SLOAD SWAP1 PUSH2 0x100 EXP SWAP1 DIV PUSH20 0xFFFFFFFFFFFFFFFFFFFFFFFFFFFFFFFFFFFFFFFF AND SWAP1 POP SWAP1 JUMP JUMPDEST PUSH1 0x60 DUP2 PUSH1 0x2 PUSH1 0x0 SWAP1 SLOAD SWAP1 PUSH2 0x100 EXP SWAP1 DIV PUSH20 0xFFFFFFFFFFFFFFFFFFFFFFFFFFFFFFFFFFFFFFFF AND PUSH20 0xFFFFFFFFFFFFFFFFFFFFFFFFFFFFFFFFFFFFFFFF AND PUSH4 0x83C4C00D PUSH1 0x40 MLOAD DUP2 PUSH4 0xFFFFFFFF AND PUSH1 0xE0 SHL DUP2 MSTORE PUSH1 0x4 ADD PUSH1 0x20 PUSH1 0x40 MLOAD DUP1 DUP4 SUB DUP2 DUP7 GAS STATICCALL ISZERO DUP1 ISZERO PUSH2 0x34D JUMPI RETURNDATASIZE PUSH1 0x0 DUP1 RETURNDATACOPY RETURNDATASIZE PUSH1 0x0 REVERT JUMPDEST POP POP POP POP PUSH1 0x40 MLOAD RETURNDATASIZE PUSH1 0x1F NOT PUSH1 0x1F DUP3 ADD AND DUP3 ADD DUP1 PUSH1 0x40 MSTORE POP DUP2 ADD SWAP1 PUSH2 0x371 SWAP2 SWAP1 PUSH2 0xA3D JUMP JUMPDEST LT ISZERO PUSH2 0x3B2 JUMPI PUSH1 0x40 MLOAD PUSH32 0x8C379A000000000000000000000000000000000000000000000000000000000 DUP2 MSTORE PUSH1 0x4 ADD PUSH2 0x3A9 SWAP1 PUSH2 0xAB6 JUMP JUMPDEST PUSH1 0x40 MLOAD DUP1 SWAP2 SUB SWAP1 REVERT JUMPDEST PUSH1 0x0 PUSH1 0x1 PUSH1 0x0 DUP5 DUP2 MSTORE PUSH1 0x20 ADD SWAP1 DUP2 MSTORE PUSH1 0x20 ADD PUSH1 0x0 KECCAK256 DUP1 SLOAD PUSH2 0x3D2 SWAP1 PUSH2 0xB05 JUMP JUMPDEST SWAP1 POP SUB PUSH2 0x414 JUMPI PUSH1 0x40 MLOAD PUSH32 0x8C379A000000000000000000000000000000000000000000000000000000000 DUP2 MSTORE PUSH1 0x4 ADD PUSH2 0x40B SWAP1 PUSH2 0xECA JUMP JUMPDEST PUSH1 0x40 MLOAD DUP1 SWAP2 SUB SWAP1 REVERT JUMPDEST PUSH1 0x1 PUSH1 0x0 DUP4 DUP2 MSTORE PUSH1 0x20 ADD SWAP1 DUP2 MSTORE PUSH1 0x20 ADD PUSH1 0x0 KECCAK256 DUP1 SLOAD PUSH2 0x432 SWAP1 PUSH2 0xB05 JUMP JUMPDEST DUP1 PUSH1 0x1F ADD PUSH1 0x20 DUP1 SWAP2 DIV MUL PUSH1 0x20 ADD PUSH1 0x40 MLOAD SWAP1 DUP2 ADD PUSH1 0x40 MSTORE DUP1 SWAP3 SWAP2 SWAP1 DUP2 DUP2 MSTORE PUSH1 0x20 ADD DUP3 DUP1 SLOAD PUSH2 0x45E SWAP1 PUSH2 0xB05 JUMP JUMPDEST DUP1 ISZERO PUSH2 0x4AB JUMPI DUP1 PUSH1 0x1F LT PUSH2 0x480 JUMPI PUSH2 0x100 DUP1 DUP4 SLOAD DIV MUL DUP4 MSTORE SWAP2 PUSH1 0x20 ADD SWAP2 PUSH2 0x4AB JUMP JUMPDEST DUP3 ADD SWAP2 SWAP1 PUSH1 0x0 MSTORE PUSH1 0x20 PUSH1 0x0 KECCAK256 SWAP1 JUMPDEST DUP2 SLOAD DUP2 MSTORE SWAP1 PUSH1 0x1 ADD SWAP1 PUSH1 0x20 ADD DUP1 DUP4 GT PUSH2 0x48E JUMPI DUP3 SWAP1 SUB PUSH1 0x1F AND DUP3 ADD SWAP2 JUMPDEST POP POP POP POP POP SWAP1 POP SWAP2 SWAP1 POP JUMP JUMPDEST PUSH2 0x4BF PUSH2 0x612 JUMP JUMPDEST PUSH2 0x4C9 PUSH1 0x0 PUSH2 0x699 JUMP JUMPDEST JUMP JUMPDEST PUSH1 0x0 PUSH1 0x2 PUSH1 0x0 SWAP1 SLOAD SWAP1 PUSH2 0x100 EXP SWAP1 DIV PUSH20 0xFFFFFFFFFFFFFFFFFFFFFFFFFFFFFFFFFFFFFFFF AND PUSH20 0xFFFFFFFFFFFFFFFFFFFFFFFFFFFFFFFFFFFFFFFF AND PUSH4 0x83C4C00D PUSH1 0x40 MLOAD DUP2 PUSH4 0xFFFFFFFF AND PUSH1 0xE0 SHL DUP2 MSTORE PUSH1 0x4 ADD PUSH1 0x20 PUSH1 0x40 MLOAD DUP1 DUP4 SUB DUP2 DUP7 GAS STATICCALL ISZERO DUP1 ISZERO PUSH2 0x53A JUMPI RETURNDATASIZE PUSH1 0x0 DUP1 RETURNDATACOPY RETURNDATASIZE PUSH1 0x0 REVERT JUMPDEST POP POP POP POP PUSH1 0x40 MLOAD RETURNDATASIZE PUSH1 0x1F NOT PUSH1 0x1F DUP3 ADD AND DUP3 ADD DUP1 PUSH1 0x40 MSTORE POP DUP2 ADD SWAP1 PUSH2 0x55E SWAP2 SWAP1 PUSH2 0xA3D JUMP JUMPDEST SWAP1 POP SWAP1 JUMP JUMPDEST PUSH1 0x0 DUP1 PUSH1 0x0 SWAP1 SLOAD SWAP1 PUSH2 0x100 EXP SWAP1 DIV PUSH20 0xFFFFFFFFFFFFFFFFFFFFFFFFFFFFFFFFFFFFFFFF AND SWAP1 POP SWAP1 JUMP JUMPDEST PUSH2 0x594 PUSH2 0x612 JUMP JUMPDEST PUSH1 0x0 PUSH20 0xFFFFFFFFFFFFFFFFFFFFFFFFFFFFFFFFFFFFFFFF AND DUP2 PUSH20 0xFFFFFFFFFFFFFFFFFFFFFFFFFFFFFFFFFFFFFFFF AND SUB PUSH2 0x606 JUMPI PUSH1 0x0 PUSH1 0x40 MLOAD PUSH32 0x1E4FBDF700000000000000000000000000000000000000000000000000000000 DUP2 MSTORE PUSH1 0x4 ADD PUSH2 0x5FD SWAP2 SWAP1 PUSH2 0x8AB JUMP JUMPDEST PUSH1 0x40 MLOAD DUP1 SWAP2 SUB SWAP1 REVERT JUMPDEST PUSH2 0x60F DUP2 PUSH2 0x699 JUMP JUMPDEST POP JUMP JUMPDEST PUSH2 0x61A PUSH2 0x75D JUMP JUMPDEST PUSH20 0xFFFFFFFFFFFFFFFFFFFFFFFFFFFFFFFFFFFFFFFF AND PUSH2 0x638 PUSH2 0x563 JUMP JUMPDEST PUSH20 0xFFFFFFFFFFFFFFFFFFFFFFFFFFFFFFFFFFFFFFFF AND EQ PUSH2 0x697 JUMPI PUSH2 0x65B PUSH2 0x75D JUMP JUMPDEST PUSH1 0x40 MLOAD PUSH32 0x118CDAA700000000000000000000000000000000000000000000000000000000 DUP2 MSTORE PUSH1 0x4 ADD PUSH2 0x68E SWAP2 SWAP1 PUSH2 0x8AB JUMP JUMPDEST PUSH1 0x40 MLOAD DUP1 SWAP2 SUB SWAP1 REVERT JUMPDEST JUMP JUMPDEST PUSH1 0x0 DUP1 PUSH1 0x0 SWAP1 SLOAD SWAP1 PUSH2 0x100 EXP SWAP1 DIV PUSH20 0xFFFFFFFFFFFFFFFFFFFFFFFFFFFFFFFFFFFFFFFF AND SWAP1 POP DUP2 PUSH1 0x0 DUP1 PUSH2 0x100 EXP DUP2 SLOAD DUP2 PUSH20 0xFFFFFFFFFFFFFFFFFFFFFFFFFFFFFFFFFFFFFFFF MUL NOT AND SWAP1 DUP4 PUSH20 0xFFFFFFFFFFFFFFFFFFFFFFFFFFFFFFFFFFFFFFFF AND MUL OR SWAP1 SSTORE POP DUP2 PUSH20 0xFFFFFFFFFFFFFFFFFFFFFFFFFFFFFFFFFFFFFFFF AND DUP2 PUSH20 0xFFFFFFFFFFFFFFFFFFFFFFFFFFFFFFFFFFFFFFFF AND PUSH32 0x8BE0079C531659141344CD1FD0A4F28419497F9722A3DAAFE3B4186F6B6457E0 PUSH1 0x40 MLOAD PUSH1 0x40 MLOAD DUP1 SWAP2 SUB SWAP1 LOG3 POP POP JUMP JUMPDEST PUSH1 0x0 CALLER SWAP1 POP SWAP1 JUMP JUMPDEST PUSH1 0x0 DUP1 REVERT JUMPDEST PUSH1 0x0 DUP1 REVERT JUMPDEST PUSH1 0x0 DUP2 SWAP1 POP SWAP2 SWAP1 POP JUMP JUMPDEST PUSH2 0x782 DUP2 PUSH2 0x76F JUMP JUMPDEST DUP2 EQ PUSH2 0x78D JUMPI PUSH1 0x0 DUP1 REVERT JUMPDEST POP JUMP JUMPDEST PUSH1 0x0 DUP2 CALLDATALOAD SWAP1 POP PUSH2 0x79F DUP2 PUSH2 0x779 JUMP JUMPDEST SWAP3 SWAP2 POP POP JUMP JUMPDEST PUSH1 0x0 DUP1 REVERT JUMPDEST PUSH1 0x0 DUP1 REVERT JUMPDEST PUSH1 0x0 DUP1 REVERT JUMPDEST PUSH1 0x0 DUP1 DUP4 PUSH1 0x1F DUP5 ADD SLT PUSH2 0x7CA JUMPI PUSH2 0x7C9 PUSH2 0x7A5 JUMP JUMPDEST JUMPDEST DUP3 CALLDATALOAD SWAP1 POP PUSH8 0xFFFFFFFFFFFFFFFF DUP2 GT ISZERO PUSH2 0x7E7 JUMPI PUSH2 0x7E6 PUSH2 0x7AA JUMP JUMPDEST JUMPDEST PUSH1 0x20 DUP4 ADD SWAP2 POP DUP4 PUSH1 0x1 DUP3 MUL DUP4 ADD GT ISZERO PUSH2 0x803 JUMPI PUSH2 0x802 PUSH2 0x7AF JUMP JUMPDEST JUMPDEST SWAP3 POP SWAP3 SWAP1 POP JUMP JUMPDEST PUSH1 0x0 DUP1 PUSH1 0x0 PUSH1 0x40 DUP5 DUP7 SUB SLT ISZERO PUSH2 0x823 JUMPI PUSH2 0x822 PUSH2 0x765 JUMP JUMPDEST JUMPDEST PUSH1 0x0 PUSH2 0x831 DUP7 DUP3 DUP8 ADD PUSH2 0x790 JUMP JUMPDEST SWAP4 POP POP PUSH1 0x20 DUP5 ADD CALLDATALOAD PUSH8 0xFFFFFFFFFFFFFFFF DUP2 GT ISZERO PUSH2 0x852 JUMPI PUSH2 0x851 PUSH2 0x76A JUMP JUMPDEST JUMPDEST PUSH2 0x85E DUP7 DUP3 DUP8 ADD PUSH2 0x7B4 JUMP JUMPDEST SWAP3 POP SWAP3 POP POP SWAP3 POP SWAP3 POP SWAP3 JUMP JUMPDEST PUSH1 0x0 PUSH20 0xFFFFFFFFFFFFFFFFFFFFFFFFFFFFFFFFFFFFFFFF DUP3 AND SWAP1 POP SWAP2 SWAP1 POP JUMP JUMPDEST PUSH1 0x0 PUSH2 0x895 DUP3 PUSH2 0x86A JUMP JUMPDEST SWAP1 POP SWAP2 SWAP1 POP JUMP JUMPDEST PUSH2 0x8A5 DUP2 PUSH2 0x88A JUMP JUMPDEST DUP3 MSTORE POP POP JUMP JUMPDEST PUSH1 0x0 PUSH1 0x20 DUP3 ADD SWAP1 POP PUSH2 0x8C0 PUSH1 0x0 DUP4 ADD DUP5 PUSH2 0x89C JUMP JUMPDEST SWAP3 SWAP2 POP POP JUMP JUMPDEST PUSH1 0x0 PUSH1 0x20 DUP3 DUP5 SUB SLT ISZERO PUSH2 0x8DC JUMPI PUSH2 0x8DB PUSH2 0x765 JUMP JUMPDEST JUMPDEST PUSH1 0x0 PUSH2 0x8EA DUP5 DUP3 DUP6 ADD PUSH2 0x790 JUMP JUMPDEST SWAP2 POP POP SWAP3 SWAP2 POP POP JUMP JUMPDEST PUSH1 0x0 DUP2 MLOAD SWAP1 POP SWAP2 SWAP1 POP JUMP JUMPDEST PUSH1 0x0 DUP3 DUP3 MSTORE PUSH1 0x20 DUP3 ADD SWAP1 POP SWAP3 SWAP2 POP POP JUMP JUMPDEST PUSH1 0x0 JUMPDEST DUP4 DUP2 LT ISZERO PUSH2 0x92D JUMPI DUP1 DUP3 ADD MLOAD DUP2 DUP5 ADD MSTORE PUSH1 0x20 DUP2 ADD SWAP1 POP PUSH2 0x912 JUMP JUMPDEST PUSH1 0x0 DUP5 DUP5 ADD MSTORE POP POP POP POP JUMP JUMPDEST PUSH1 0x0 PUSH1 0x1F NOT PUSH1 0x1F DUP4 ADD AND SWAP1 POP SWAP2 SWAP1 POP JUMP JUMPDEST PUSH1 0x0 PUSH2 0x955 DUP3 PUSH2 0x8F3 JUMP JUMPDEST PUSH2 0x95F DUP2 DUP6 PUSH2 0x8FE JUMP JUMPDEST SWAP4 POP PUSH2 0x96F DUP2 DUP6 PUSH1 0x20 DUP7 ADD PUSH2 0x90F JUMP JUMPDEST PUSH2 0x978 DUP2 PUSH2 0x939 JUMP JUMPDEST DUP5 ADD SWAP2 POP POP SWAP3 SWAP2 POP POP JUMP JUMPDEST PUSH1 0x0 PUSH1 0x20 DUP3 ADD SWAP1 POP DUP2 DUP2 SUB PUSH1 0x0 DUP4 ADD MSTORE PUSH2 0x99D DUP2 DUP5 PUSH2 0x94A JUMP JUMPDEST SWAP1 POP SWAP3 SWAP2 POP POP JUMP JUMPDEST PUSH2 0x9AE DUP2 PUSH2 0x76F JUMP JUMPDEST DUP3 MSTORE POP POP JUMP JUMPDEST PUSH1 0x0 PUSH1 0x20 DUP3 ADD SWAP1 POP PUSH2 0x9C9 PUSH1 0x0 DUP4 ADD DUP5 PUSH2 0x9A5 JUMP JUMPDEST SWAP3 SWAP2 POP POP JUMP JUMPDEST PUSH2 0x9D8 DUP2 PUSH2 0x88A JUMP JUMPDEST DUP2 EQ PUSH2 0x9E3 JUMPI PUSH1 0x0 DUP1 REVERT JUMPDEST POP JUMP JUMPDEST PUSH1 0x0 DUP2 CALLDATALOAD SWAP1 POP PUSH2 0x9F5 DUP2 PUSH2 0x9CF JUMP JUMPDEST SWAP3 SWAP2 POP POP JUMP JUMPDEST PUSH1 0x0 PUSH1 0x20 DUP3 DUP5 SUB SLT ISZERO PUSH2 0xA11 JUMPI PUSH2 0xA10 PUSH2 0x765 JUMP JUMPDEST JUMPDEST PUSH1 0x0 PUSH2 0xA1F DUP5 DUP3 DUP6 ADD PUSH2 0x9E6 JUMP JUMPDEST SWAP2 POP POP SWAP3 SWAP2 POP POP JUMP JUMPDEST PUSH1 0x0 DUP2 MLOAD SWAP1 POP PUSH2 0xA37 DUP2 PUSH2 0x779 JUMP JUMPDEST SWAP3 SWAP2 POP POP JUMP JUMPDEST PUSH1 0x0 PUSH1 0x20 DUP3 DUP5 SUB SLT ISZERO PUSH2 0xA53 JUMPI PUSH2 0xA52 PUSH2 0x765 JUMP JUMPDEST JUMPDEST PUSH1 0x0 PUSH2 0xA61 DUP5 DUP3 DUP6 ADD PUSH2 0xA28 JUMP JUMPDEST SWAP2 POP POP SWAP3 SWAP2 POP POP JUMP JUMPDEST PUSH32 0x546F6B656E20646F6573206E6F74206578697374000000000000000000000000 PUSH1 0x0 DUP3 ADD MSTORE POP JUMP JUMPDEST PUSH1 0x0 PUSH2 0xAA0 PUSH1 0x14 DUP4 PUSH2 0x8FE JUMP JUMPDEST SWAP2 POP PUSH2 0xAAB DUP3 PUSH2 0xA6A JUMP JUMPDEST PUSH1 0x20 DUP3 ADD SWAP1 POP SWAP2 SWAP1 POP JUMP JUMPDEST PUSH1 0x0 PUSH1 0x20 DUP3 ADD SWAP1 POP DUP2 DUP2 SUB PUSH1 0x0 DUP4 ADD MSTORE PUSH2 0xACF DUP2 PUSH2 0xA93 JUMP JUMPDEST SWAP1 POP SWAP2 SWAP1 POP JUMP JUMPDEST PUSH32 0x4E487B7100000000000000000000000000000000000000000000000000000000 PUSH1 0x0 MSTORE PUSH1 0x22 PUSH1 0x4 MSTORE PUSH1 0x24 PUSH1 0x0 REVERT JUMPDEST PUSH1 0x0 PUSH1 0x2 DUP3 DIV SWAP1 POP PUSH1 0x1 DUP3 AND DUP1 PUSH2 0xB1D JUMPI PUSH1 0x7F DUP3 AND SWAP2 POP JUMPDEST PUSH1 0x20 DUP3 LT DUP2 SUB PUSH2 0xB30 JUMPI PUSH2 0xB2F PUSH2 0xAD6 JUMP JUMPDEST JUMPDEST POP SWAP2 SWAP1 POP JUMP JUMPDEST PUSH32 0x436C61696D7320616C7265616479206578697374206F6E207468697320746F6B PUSH1 0x0 DUP3 ADD MSTORE PUSH32 0x656E000000000000000000000000000000000000000000000000000000000000 PUSH1 0x20 DUP3 ADD MSTORE POP JUMP JUMPDEST PUSH1 0x0 PUSH2 0xB92 PUSH1 0x22 DUP4 PUSH2 0x8FE JUMP JUMPDEST SWAP2 POP PUSH2 0xB9D DUP3 PUSH2 0xB36 JUMP JUMPDEST PUSH1 0x40 DUP3 ADD SWAP1 POP SWAP2 SWAP1 POP JUMP JUMPDEST PUSH1 0x0 PUSH1 0x20 DUP3 ADD SWAP1 POP DUP2 DUP2 SUB PUSH1 0x0 DUP4 ADD MSTORE PUSH2 0xBC1 DUP2 PUSH2 0xB85 JUMP JUMPDEST SWAP1 POP SWAP2 SWAP1 POP JUMP JUMPDEST PUSH1 0x0 DUP3 SWAP1 POP SWAP3 SWAP2 POP POP JUMP JUMPDEST PUSH32 0x4E487B7100000000000000000000000000000000000000000000000000000000 PUSH1 0x0 MSTORE PUSH1 0x41 PUSH1 0x4 MSTORE PUSH1 0x24 PUSH1 0x0 REVERT JUMPDEST PUSH1 0x0 DUP2 SWAP1 POP DUP2 PUSH1 0x0 MSTORE PUSH1 0x20 PUSH1 0x0 KECCAK256 SWAP1 POP SWAP2 SWAP1 POP JUMP JUMPDEST PUSH1 0x0 PUSH1 0x20 PUSH1 0x1F DUP4 ADD DIV SWAP1 POP SWAP2 SWAP1 POP JUMP JUMPDEST PUSH1 0x0 DUP3 DUP3 SHL SWAP1 POP SWAP3 SWAP2 POP POP JUMP JUMPDEST PUSH1 0x0 PUSH1 0x8 DUP4 MUL PUSH2 0xC64 PUSH32 0xFFFFFFFFFFFFFFFFFFFFFFFFFFFFFFFFFFFFFFFFFFFFFFFFFFFFFFFFFFFFFFFF DUP3 PUSH2 0xC27 JUMP JUMPDEST PUSH2 0xC6E DUP7 DUP4 PUSH2 0xC27 JUMP JUMPDEST SWAP6 POP DUP1 NOT DUP5 AND SWAP4 POP DUP1 DUP7 AND DUP5 OR SWAP3 POP POP POP SWAP4 SWAP3 POP POP POP JUMP JUMPDEST PUSH1 0x0 DUP2 SWAP1 POP SWAP2 SWAP1 POP JUMP JUMPDEST PUSH1 0x0 PUSH2 0xCAB PUSH2 0xCA6 PUSH2 0xCA1 DUP5 PUSH2 0x76F JUMP JUMPDEST PUSH2 0xC86 JUMP JUMPDEST PUSH2 0x76F JUMP JUMPDEST SWAP1 POP SWAP2 SWAP1 POP JUMP JUMPDEST PUSH1 0x0 DUP2 SWAP1 POP SWAP2 SWAP1 POP JUMP JUMPDEST PUSH2 0xCC5 DUP4 PUSH2 0xC90 JUMP JUMPDEST PUSH2 0xCD9 PUSH2 0xCD1 DUP3 PUSH2 0xCB2 JUMP JUMPDEST DUP5 DUP5 SLOAD PUSH2 0xC34 JUMP JUMPDEST DUP3 SSTORE POP POP POP POP JUMP JUMPDEST PUSH1 0x0 SWAP1 JUMP JUMPDEST PUSH2 0xCEE PUSH2 0xCE1 JUMP JUMPDEST PUSH2 0xCF9 DUP2 DUP5 DUP5 PUSH2 0xCBC JUMP JUMPDEST POP POP POP JUMP JUMPDEST JUMPDEST DUP2 DUP2 LT ISZERO PUSH2 0xD1D JUMPI PUSH2 0xD12 PUSH1 0x0 DUP3 PUSH2 0xCE6 JUMP JUMPDEST PUSH1 0x1 DUP2 ADD SWAP1 POP PUSH2 0xCFF JUMP JUMPDEST POP POP JUMP JUMPDEST PUSH1 0x1F DUP3 GT ISZERO PUSH2 0xD62 JUMPI PUSH2 0xD33 DUP2 PUSH2 0xC02 JUMP JUMPDEST PUSH2 0xD3C DUP5 PUSH2 0xC17 JUMP JUMPDEST DUP2 ADD PUSH1 0x20 DUP6 LT ISZERO PUSH2 0xD4B JUMPI DUP2 SWAP1 POP JUMPDEST PUSH2 0xD5F PUSH2 0xD57 DUP6 PUSH2 0xC17 JUMP JUMPDEST DUP4 ADD DUP3 PUSH2 0xCFE JUMP JUMPDEST POP POP JUMPDEST POP POP POP JUMP JUMPDEST PUSH1 0x0 DUP3 DUP3 SHR SWAP1 POP SWAP3 SWAP2 POP POP JUMP JUMPDEST PUSH1 0x0 PUSH2 0xD85 PUSH1 0x0 NOT DUP5 PUSH1 0x8 MUL PUSH2 0xD67 JUMP JUMPDEST NOT DUP1 DUP4 AND SWAP2 POP POP SWAP3 SWAP2 POP POP JUMP JUMPDEST PUSH1 0x0 PUSH2 0xD9E DUP4 DUP4 PUSH2 0xD74 JUMP JUMPDEST SWAP2 POP DUP3 PUSH1 0x2 MUL DUP3 OR SWAP1 POP SWAP3 SWAP2 POP POP JUMP JUMPDEST PUSH2 0xDB8 DUP4 DUP4 PUSH2 0xBC8 JUMP JUMPDEST PUSH8 0xFFFFFFFFFFFFFFFF DUP2 GT ISZERO PUSH2 0xDD1 JUMPI PUSH2 0xDD0 PUSH2 0xBD3 JUMP JUMPDEST JUMPDEST PUSH2 0xDDB DUP3 SLOAD PUSH2 0xB05 JUMP JUMPDEST PUSH2 0xDE6 DUP3 DUP3 DUP6 PUSH2 0xD21 JUMP JUMPDEST PUSH1 0x0 PUSH1 0x1F DUP4 GT PUSH1 0x1 DUP2 EQ PUSH2 0xE15 JUMPI PUSH1 0x0 DUP5 ISZERO PUSH2 0xE03 JUMPI DUP3 DUP8 ADD CALLDATALOAD SWAP1 POP JUMPDEST PUSH2 0xE0D DUP6 DUP3 PUSH2 0xD92 JUMP JUMPDEST DUP7 SSTORE POP PUSH2 0xE75 JUMP JUMPDEST PUSH1 0x1F NOT DUP5 AND PUSH2 0xE23 DUP7 PUSH2 0xC02 JUMP JUMPDEST PUSH1 0x0 JUMPDEST DUP3 DUP2 LT ISZERO PUSH2 0xE4B JUMPI DUP5 DUP10 ADD CALLDATALOAD DUP3 SSTORE PUSH1 0x1 DUP3 ADD SWAP2 POP PUSH1 0x20 DUP6 ADD SWAP5 POP PUSH1 0x20 DUP2 ADD SWAP1 POP PUSH2 0xE26 JUMP JUMPDEST DUP7 DUP4 LT ISZERO PUSH2 0xE68 JUMPI DUP5 DUP10 ADD CALLDATALOAD PUSH2 0xE64 PUSH1 0x1F DUP10 AND DUP3 PUSH2 0xD74 JUMP JUMPDEST DUP4 SSTORE POP JUMPDEST PUSH1 0x1 PUSH1 0x2 DUP9 MUL ADD DUP9 SSTORE POP POP POP JUMPDEST POP POP POP POP POP POP POP JUMP JUMPDEST PUSH32 0x436C61696D73206E6F7420736574207965740000000000000000000000000000 PUSH1 0x0 DUP3 ADD MSTORE POP JUMP JUMPDEST PUSH1 0x0 PUSH2 0xEB4 PUSH1 0x12 DUP4 PUSH2 0x8FE JUMP JUMPDEST SWAP2 POP PUSH2 0xEBF DUP3 PUSH2 0xE7E JUMP JUMPDEST PUSH1 0x20 DUP3 ADD SWAP1 POP SWAP2 SWAP1 POP JUMP JUMPDEST PUSH1 0x0 PUSH1 0x20 DUP3 ADD SWAP1 POP DUP2 DUP2 SUB PUSH1 0x0 DUP4 ADD MSTORE PUSH2 0xEE3 DUP2 PUSH2 0xEA7 JUMP JUMPDEST SWAP1 POP SWAP2 SWAP1 POP JUMP INVALID LOG2 PUSH5 0x6970667358 0x22 SLT KECCAK256 0xD0 0xD9 0x4C 0xD1 PUSH30 0xD1AAEF187341B01F6B4FFE5649E7C85F46023263E0F079DCF5CE0064736F PUSH13 0x63430008140033000000000000 "},"methodIdentifiers":{"getClaim(uint256)":"5aef2447","getIssuer()":"52556421","getLastTokenId()":"83c4c00d","owner()":"8da5cb5b","renounceOwnership()":"715018a6","setClaim(uint256,string)":"4bd9c129","transferOwnership(address)":"f2fde38b"}}}}}