{
  "_format": "hh-sol-artifact-1",
  "contractName": "Claims",
  "sourceName": "contracts/Claims.sol",
  "abi": [
    {
      "inputs": [
        {
          "internalType": "address",
          "name": "issuer",
          "type": "address"
        }
      ],
      "stateMutability": "nonpayable",
      "type": "constructor"
    },
    {
      "inputs": [
        {
          "internalType": "address",
          "name": "owner",
          "type": "address"
        }
      ],
      "name": "OwnableInvalidOwner",
      "type": "error"
    },
    {
      "inputs": [
        {
          "internalType": "address",
          "name": "account",
          "type": "address"
        }
      ],
      "name": "OwnableUnauthorizedAccount",
      "type": "error"
    },
    {
      "anonymous": false,
      "inputs": [
        {
          "indexed": true,
          "internalType": "address",
          "name": "previousOwner",
          "type": "address"
        },
        {
          "indexed": true,
          "internalType": "address",
          "name": "newOwner",
          "type": "address"
        }
      ],
      "name": "OwnershipTransferred",
      "type": "event"
    },
    {
      "inputs": [
        {
          "internalType": "uint256",
          "name": "tokenId",
          "type": "uint256"
        }
      ],
      "name": "getClaim",
      "outputs": [
        {
          "internalType": "string",
          "name": "",
          "type": "string"
        }
      ],
      "stateMutability": "view",
      "type": "function"
    },
    {
      "inputs": [],
      "name": "getIssuer",
      "outputs": [
        {
          "internalType": "address",
          "name": "",
          "type": "address"
        }
      ],
      "stateMutability": "view",
      "type": "function"
    },
    {
      "inputs": [],
      "name": "getLastTokenId",
      "outputs": [
        {
          "internalType": "uint256",
          "name": "",
          "type": "uint256"
        }
      ],
      "stateMutability": "view",
      "type": "function"
    },
    {
      "inputs": [],
      "name": "owner",
      "outputs": [
        {
          "internalType": "address",
          "name": "",
          "type": "address"
        }
      ],
      "stateMutability": "view",
      "type": "function"
    },
    {
      "inputs": [],
      "name": "renounceOwnership",
      "outputs": [],
      "stateMutability": "nonpayable",
      "type": "function"
    },
    {
      "inputs": [
        {
          "internalType": "uint256",
          "name": "tokenId",
          "type": "uint256"
        },
        {
          "internalType": "string",
          "name": "claimsHash",
          "type": "string"
        }
      ],
      "name": "setClaim",
      "outputs": [],
      "stateMutability": "nonpayable",
      "type": "function"
    },
    {
      "inputs": [
        {
          "internalType": "address",
          "name": "newOwner",
          "type": "address"
        }
      ],
      "name": "transferOwnership",
      "outputs": [],
      "stateMutability": "nonpayable",
      "type": "function"
    }
  ],
  "bytecode": "0x60806040523480156200001157600080fd5b506040516200120638038062001206833981810160405281019062000037919062000276565b33600073ffffffffffffffffffffffffffffffffffffffff168173ffffffffffffffffffffffffffffffffffffffff1603620000ad5760006040517f1e4fbdf7000000000000000000000000000000000000000000000000000000008152600401620000a49190620002b9565b60405180910390fd5b620000be816200014860201b60201c565b5080600260006101000a81548173ffffffffffffffffffffffffffffffffffffffff021916908373ffffffffffffffffffffffffffffffffffffffff16021790555080600360006101000a81548173ffffffffffffffffffffffffffffffffffffffff021916908373ffffffffffffffffffffffffffffffffffffffff16021790555050620002d6565b60008060009054906101000a900473ffffffffffffffffffffffffffffffffffffffff169050816000806101000a81548173ffffffffffffffffffffffffffffffffffffffff021916908373ffffffffffffffffffffffffffffffffffffffff1602179055508173ffffffffffffffffffffffffffffffffffffffff168173ffffffffffffffffffffffffffffffffffffffff167f8be0079c531659141344cd1fd0a4f28419497f9722a3daafe3b4186f6b6457e060405160405180910390a35050565b600080fd5b600073ffffffffffffffffffffffffffffffffffffffff82169050919050565b60006200023e8262000211565b9050919050565b620002508162000231565b81146200025c57600080fd5b50565b600081519050620002708162000245565b92915050565b6000602082840312156200028f576200028e6200020c565b5b60006200029f848285016200025f565b91505092915050565b620002b38162000231565b82525050565b6000602082019050620002d06000830184620002a8565b92915050565b610f2080620002e66000396000f3fe608060405234801561001057600080fd5b506004361061007d5760003560e01c8063715018a61161005b578063715018a6146100ec57806383c4c00d146100f65780638da5cb5b14610114578063f2fde38b146101325761007d565b80634bd9c12914610082578063525564211461009e5780635aef2447146100bc575b600080fd5b61009c6004803603810190610097919061080a565b61014e565b005b6100a66102b3565b6040516100b391906108ab565b60405180910390f35b6100d660048036038101906100d191906108c6565b6102dd565b6040516100e39190610983565b60405180910390f35b6100f46104b7565b005b6100fe6104cb565b60405161010b91906109b4565b60405180910390f35b61011c610563565b60405161012991906108ab565b60405180910390f35b61014c600480360381019061014791906109fb565b61058c565b005b610156610612565b82600260009054906101000a900473ffffffffffffffffffffffffffffffffffffffff1673ffffffffffffffffffffffffffffffffffffffff166383c4c00d6040518163ffffffff1660e01b8152600401602060405180830381865afa1580156101c4573d6000803e3d6000fd5b505050506040513d601f19601f820116820180604052508101906101e89190610a3d565b1015610229576040517f08c379a000000000000000000000000000000000000000000000000000000000815260040161022090610ab6565b60405180910390fd5b600060016000858152602001908152602001600020805461024990610b05565b90501461028b576040517f08c379a000000000000000000000000000000000000000000000000000000000815260040161028290610ba8565b60405180910390fd5b81816001600086815260200190815260200160002091826102ad929190610dae565b50505050565b6000600360009054906101000a900473ffffffffffffffffffffffffffffffffffffffff16905090565b606081600260009054906101000a900473ffffffffffffffffffffffffffffffffffffffff1673ffffffffffffffffffffffffffffffffffffffff166383c4c00d6040518163ffffffff1660e01b8152600401602060405180830381865afa15801561034d573d6000803e3d6000fd5b505050506040513d601f19601f820116820180604052508101906103719190610a3d565b10156103b2576040517f08c379a00000000000000000000000000000000000000000000000000000000081526004016103a990610ab6565b60405180910390fd5b60006001600084815260200190815260200160002080546103d290610b05565b905003610414576040517f08c379a000000000000000000000000000000000000000000000000000000000815260040161040b90610eca565b60405180910390fd5b60016000838152602001908152602001600020805461043290610b05565b80601f016020809104026020016040519081016040528092919081815260200182805461045e90610b05565b80156104ab5780601f10610480576101008083540402835291602001916104ab565b820191906000526020600020905b81548152906001019060200180831161048e57829003601f168201915b50505050509050919050565b6104bf610612565b6104c96000610699565b565b6000600260009054906101000a900473ffffffffffffffffffffffffffffffffffffffff1673ffffffffffffffffffffffffffffffffffffffff166383c4c00d6040518163ffffffff1660e01b8152600401602060405180830381865afa15801561053a573d6000803e3d6000fd5b505050506040513d601f19601f8201168201806040525081019061055e9190610a3d565b905090565b60008060009054906101000a900473ffffffffffffffffffffffffffffffffffffffff16905090565b610594610612565b600073ffffffffffffffffffffffffffffffffffffffff168173ffffffffffffffffffffffffffffffffffffffff16036106065760006040517f1e4fbdf70000000000000000000000000000000000000000000000000000000081526004016105fd91906108ab565b60405180910390fd5b61060f81610699565b50565b61061a61075d565b73ffffffffffffffffffffffffffffffffffffffff16610638610563565b73ffffffffffffffffffffffffffffffffffffffff16146106975761065b61075d565b6040517f118cdaa700000000000000000000000000000000000000000000000000000000815260040161068e91906108ab565b60405180910390fd5b565b60008060009054906101000a900473ffffffffffffffffffffffffffffffffffffffff169050816000806101000a81548173ffffffffffffffffffffffffffffffffffffffff021916908373ffffffffffffffffffffffffffffffffffffffff1602179055508173ffffffffffffffffffffffffffffffffffffffff168173ffffffffffffffffffffffffffffffffffffffff167f8be0079c531659141344cd1fd0a4f28419497f9722a3daafe3b4186f6b6457e060405160405180910390a35050565b600033905090565b600080fd5b600080fd5b6000819050919050565b6107828161076f565b811461078d57600080fd5b50565b60008135905061079f81610779565b92915050565b600080fd5b600080fd5b600080fd5b60008083601f8401126107ca576107c96107a5565b5b8235905067ffffffffffffffff8111156107e7576107e66107aa565b5b602083019150836001820283011115610803576108026107af565b5b9250929050565b60008060006040848603121561082357610822610765565b5b600061083186828701610790565b935050602084013567ffffffffffffffff8111156108525761085161076a565b5b61085e868287016107b4565b92509250509250925092565b600073ffffffffffffffffffffffffffffffffffffffff82169050919050565b60006108958261086a565b9050919050565b6108a58161088a565b82525050565b60006020820190506108c0600083018461089c565b92915050565b6000602082840312156108dc576108db610765565b5b60006108ea84828501610790565b91505092915050565b600081519050919050565b600082825260208201905092915050565b60005b8381101561092d578082015181840152602081019050610912565b60008484015250505050565b6000601f19601f8301169050919050565b6000610955826108f3565b61095f81856108fe565b935061096f81856020860161090f565b61097881610939565b840191505092915050565b6000602082019050818103600083015261099d818461094a565b905092915050565b6109ae8161076f565b82525050565b60006020820190506109c960008301846109a5565b92915050565b6109d88161088a565b81146109e357600080fd5b50565b6000813590506109f5816109cf565b92915050565b600060208284031215610a1157610a10610765565b5b6000610a1f848285016109e6565b91505092915050565b600081519050610a3781610779565b92915050565b600060208284031215610a5357610a52610765565b5b6000610a6184828501610a28565b91505092915050565b7f546f6b656e20646f6573206e6f74206578697374000000000000000000000000600082015250565b6000610aa06014836108fe565b9150610aab82610a6a565b602082019050919050565b60006020820190508181036000830152610acf81610a93565b9050919050565b7f4e487b7100000000000000000000000000000000000000000000000000000000600052602260045260246000fd5b60006002820490506001821680610b1d57607f821691505b602082108103610b3057610b2f610ad6565b5b50919050565b7f436c61696d7320616c7265616479206578697374206f6e207468697320746f6b60008201527f656e000000000000000000000000000000000000000000000000000000000000602082015250565b6000610b926022836108fe565b9150610b9d82610b36565b604082019050919050565b60006020820190508181036000830152610bc181610b85565b9050919050565b600082905092915050565b7f4e487b7100000000000000000000000000000000000000000000000000000000600052604160045260246000fd5b60008190508160005260206000209050919050565b60006020601f8301049050919050565b600082821b905092915050565b600060088302610c647fffffffffffffffffffffffffffffffffffffffffffffffffffffffffffffffff82610c27565b610c6e8683610c27565b95508019841693508086168417925050509392505050565b6000819050919050565b6000610cab610ca6610ca18461076f565b610c86565b61076f565b9050919050565b6000819050919050565b610cc583610c90565b610cd9610cd182610cb2565b848454610c34565b825550505050565b600090565b610cee610ce1565b610cf9818484610cbc565b505050565b5b81811015610d1d57610d12600082610ce6565b600181019050610cff565b5050565b601f821115610d6257610d3381610c02565b610d3c84610c17565b81016020851015610d4b578190505b610d5f610d5785610c17565b830182610cfe565b50505b505050565b600082821c905092915050565b6000610d8560001984600802610d67565b1980831691505092915050565b6000610d9e8383610d74565b9150826002028217905092915050565b610db88383610bc8565b67ffffffffffffffff811115610dd157610dd0610bd3565b5b610ddb8254610b05565b610de6828285610d21565b6000601f831160018114610e155760008415610e03578287013590505b610e0d8582610d92565b865550610e75565b601f198416610e2386610c02565b60005b82811015610e4b57848901358255600182019150602085019450602081019050610e26565b86831015610e685784890135610e64601f891682610d74565b8355505b6001600288020188555050505b50505050505050565b7f436c61696d73206e6f7420736574207965740000000000000000000000000000600082015250565b6000610eb46012836108fe565b9150610ebf82610e7e565b602082019050919050565b60006020820190508181036000830152610ee381610ea7565b905091905056fea2646970667358221220d0d94cd17dd1aaef187341b01f6b4ffe5649e7c85f46023263e0f079dcf5ce0064736f6c63430008140033",
  "linkReferences": {},
  "deployedLinkReferences": {}
}